:02000004080AE8
:1000000000000A08FC240A0800000600060005019A
:080010000402E60C00000000F0
:040018006C1C0A084A
:1000200009480A4908B5884205D0094A824202D0E7
:10003000121A01F05DFD0748074A0021121A01F06B
:1000400065FD064808BD00BF00000020B41E0A0878
:1000500020060020200600209D0A00209D0A002086
:1000600070B500F047FD0025054E064CA41BA40802
:10007000AC4200D170BD56F8043B98470135F7E714
:10008000901E0A08B01E0A0800F052B808B500F029
:100090008FF8BDE8084000F0E5BC00F067BB00F059
:1000A0006DBB0078B0FA80F04009704701230370FF
:1000B000704710687047000070B51749044600F09B
:1000C00027FC054628B10020144B1860144B18700B
:1000D00070BD2046134900F01BFC064628B10120E4
:1000E0000E4B18600E4B1D70F2E720460E4900F0D3
:1000F0000FFC054628B10220084B1860084B1E7003
:10010000E6E72046094900F003FC08B10320E7E7D1
:100110004FF0FF30DCE700BF801C0A0850020020CF
:1001200024060020861C0A088B1C0A08911C0A0859
:100130001FB5154B0321188801F02EF8134B03212E
:10014000188801F029F8124B0321188801F024F8CF
:10015000104B0321188801F01FF80023019303932B
:100160000C23ADF804300C4B042202930B4901AB75
:100170000B4800F0E3FA0B4A0B490C4805B05DF858
:1001800004EB00F0FFBC00BF080000200C000020C2
:100190000400002000000020B3000A082C06002004
:1001A000961C0A08A81C0A08B9000A08590B0A0874
:1001B0002DE9F84F7A4B7B4C188800F0FEFF003891
:1001C00018BF0120784B2070188800F0F6FF003827
:1001D00018BF0120754B764D764F2870188800F0B7
:1001E000ECFF003818BF0120734B3870188800F0FE
:1001F000E4FF003818BF0120704E3B7830701BB10F
:100200006F49704800F073FB23781BB16E496D484D
:1002100000F06DFB2B781BB16C496A4800F067FB5E
:1002200033781BB16A49674800F061FB694B1B6872
:1002300063BB694B1C783CBB0FF25C19D9E90089A0
:1002400040F2DC5BDFF894A1654F664E5AF8045B20
:1002500057F8041B9BFBF5F530782A4600F0CCFDDF
:10026000284601F09BF942464B4601F001FA01F0A5
:1002700011FC00F0B7FB0134307800F0D4FD122CF3
:10028000E4D10122544B1A70BDE8F88F012B29D11B
:10029000514B1C78002CF7D10FF2FC09D9E90089E9
:1002A00040F2DC5BDFF840A1504F4E4E5AF8045B41
:1002B00057F8041B9BFBF5F530782A4600F09CFDAF
:1002C000284601F06BF942464B4601F0D1F901F0A6
:1002D000E1FB00F087FB0134307800F0A4FD2E2C08
:1002E000E4D1CEE7022B29D13B4B1C78002CCBD19B
:1002F0000FF2A409D9E900894FF47A7BDFF8F0A066
:100300003C4F384E5AF8045B57F8041B9BFBF5F53D
:1003100030782A4600F070FD284601F03FF9424649
:100320004B4601F0A5F901F0B5FB00F05BFB013491
:10033000307800F078FD2C2CE4D1A2E7032BA3D178
:10034000254B1C78002C9FD10FF24C09D9E900896C
:1003500040F2DC5BDFF8A0A0284F224E5AF8045B85
:1003600057F8041B9BFBF5F530782A4600F044FD56
:10037000284601F013F942464B4601F079F901F0A5
:1003800089FB00F02FFB0134307800F04CFD482C45
:10039000E4D176E7AFF30080CDCCCCCCCCCCF43F2D
:1003A0000800002022060020040000200C0000208D
:1003B0002106002023060020000000202006002047
:1003C0008B1C0A082C060020801C0A08861C0A08C0
:1003D000911C0A0850020020240600206C05002011
:1003E00024050020280600200C03002054020020D1
:1003F00074040020C40300203001002010000020FD
:100400000149024800F046BAB31C0A082C06002035
:1004100008B5024B1B685B68019308BDB001060874
:1004200008B5024B1B689B68019308BDB001060824
:1004300008B5024B1B68DB68019308BDB0010608D4
:1004400008B5024B1B685B69019308BDB001060843
:1004500008B5024B1B685B68019308BD9C01060848
:1004600008B5024B1B685B69019308BD9C01060837
:1004700008B5024B1B685B6C019308BDD0010608F0
:1004800008B5024B1B689B6C019308BDD0010608A0
:1004900008B5024B1B685B6A019308BDC4010608DE
:1004A00008B5024B1B689B6A019308BDC40106088E
:1004B00008B5024B1B68DB6A019308BDC40106083E
:1004C00008B5024B1B681B6B019308BDC4010608ED
:1004D00008B5024B1B685B6B019308BDC40106089D
:1004E00008B5024B1B689B6B019308BDC40106084D
:1004F00008B5024B1B681B6C019308BDC4010608BC
:1005000008B5024B1B681B6E019308BDC4010608A9
:1005100008B5024B1B681B6E019308BDAC010608B1
:1005200008B5024B1B685B6E019308BDAC01060861
:1005300008B5024B1B689B6E019308BDAC01060811
:1005400008B5024B1B68DB6E019308BDAC010608C1
:1005500008B5024B1B681B6F019308BDAC01060870
:1005600008B5024B1B685B6F019308BDAC01060820
:1005700008B5034B1B68D3F88030019308BD000019
:10058000AC01060808B5024B1B68DB69019308BD86
:10059000B401060808B5024B1B681B6A019308BD2D
:1005A000B401060808B5024B1B681B68019308BD1F
:1005B000A801060808B5024B1B685B68019308BDDB
:1005C000A801060808B5024B1B681B68019308BD0B
:1005D000D801060808B5024B1B681B69019308BDCA
:1005E000D801060808B5024B1B685B69019308BD7A
:1005F000D801060808B5024B1B689B69019308BD2A
:10060000D801060808B5024B1B68DB69019308BDD9
:10061000D801060808B5024B1B681B6A019308BD88
:10062000D801060808B5024B1B689B6C019308BDF6
:10063000C001060808B5024B1B685B68019308BD42
:10064000A401060808B5024B1B685B69019308BD4D
:10065000A401060808B5034B1B68D3F8903001933A
:1006600008BD0000A401060808B5034B1B68D3F8B9
:100670009C30019308BD0000A401060808B5024B98
:100680001B685B68019308BDC801060808B5024BEA
:100690001B689B68019308BDC801060808B5024B9A
:1006A0001B68DB68019308BDC801060808B5024B4A
:1006B0001B681B69019308BDC801060808B5024BF9
:1006C0001B685B69019308BDC801060808B5024BA9
:1006D0001B689B69019308BDC801060808B5024B59
:1006E0001B68DB69019308BDC801060808B5024B09
:1006F0001B681B6A019308BDC801060808B5024BB8
:100700001B681B6B019308BDC801060808B5024BA6
:100710001B685B6B019308BDC801060808B5024B56
:100720001B681B6C019308BDC801060808B5024B85
:100730001B685B6C019308BDC801060808B5024B35
:100740001B681B68019308BDCC01060808B5024B65
:100750001B685B68019308BDCC01060808B5024B15
:100760001B68DB6B019308BDCC01060808B5024B82
:100770001B681B68019308BDA001060808B5024B61
:100780001B685B68019308BDA001060808B5024B11
:100790001B689B68019308BDA001060808B5024BC1
:1007A0001B681B6C019308BDA001060808B5024B2D
:1007B0001B685B6C019308BDA001060870B500269C
:1007C00004460D4640F8086FFFF752FE2846257094
:1007D000FFF7D8FE2046666070BD000002220020B0
:1007E000044B1A60044B054AC3E900009A60FFF706
:1007F00021BF00BF480600203C0600200000FFFF8C
:1008000010B504460068FFF7B9FF204610BD10B5CB
:100810000446006808B1FFF7B1FF0023C4E90133C3
:10082000236010BD38B504460D4600680131FFF75E
:10083000ADFF10B1C4E90005012038BD10B5036853
:10084000044623B143688B4201D3012010BD2046EA
:10085000FFF7E8FF0028F9D0A368002BF5D1226844
:100860001370F2E770B50E46114604461546FFF7C1
:10087000E5FF20B92046FFF7CAFF204670BD2A4693
:1008800031462068A56001F033F900212268A36891
:10089000D154F2E738B5002304460D46C0E90033D1
:1008A0008360037339B1084601F070F929460246A6
:1008B0002046FFF7D7FF204638BD884210B50B46CB
:1008C000044604D0096821B19A68FFF7CBFF20469F
:1008D00010BDFFF79CFFFAE7002310B50446C0E9FE
:1008E000003383600373FFF7E8FF204610BD38B57F
:1008F00005460C4649B1084601F048F92146024632
:100900002846FFF7AFFF284638BDFFF780FFFAE71C
:1009100008B582683AB921B10878B0FA80F0400988
:1009200000E0012008BD006809B90078F5E701F092
:1009300023F9F2E7F8B506460D4600248F18BD42AC
:100940000CD0336830469B6815F8011B9847031E8E
:1009500001DB1C44F3E7002C08BF1C462046F8BD11
:1009600070B505460C46084649B101F00FF92B68F1
:10097000024621462846BDE87040DB68184770BD36
:1009800003689B6818470023012A98BF0A2230B5E4
:100990008BB00C468DF8243009A92546B4FBF2F43F
:1009A00004FB1253DBB2092B94BF30333733DBB275
:1009B000AA4201F8013DF0D9FFF7D2FF0BB030BDDC
:1009C000014B024A1A6070474C060020C41C0A08FA
:1009D000024B1A68024B1A60704700BFB405002032
:1009E000500600200021FFF72DBE00000022014B21
:1009F0009A60704754060020014B1860704700BF92
:100A0000B805002008B5134B43B100F097F903680F
:100A10001B699847002801DDAFF300800E4B43B1FE
:100A200000F0FAFB03681B699847002801DDAFF36B
:100A300000800A4B0BB1AFF30080094B43B100F0CB
:100A4000B7F903681B699847002801DDAFF3008000
:100A500008BD00BF00000000000000000000000012
:100A60000000000008B5FFF7CDFFFFF7F9FC014BD0
:100A7000186008BDD80900200548064A08B5121AB2
:100A8000054901F035F8054B054A1A6008BD00BF5D
:100A90000040024004400240B01E0A0800400240EC
:100AA0001E1C279A002307B51A466FF077010093A2
:100AB000FFF7DAFD03B05DF804FB000007B54388DB
:100AC0000A2B08D0502B0BD1094B1B684BB103B03C
:100AD0005DF804EB1847FFF7E5FF03B05DF804FB92
:100AE00000231A466FF077010093FFF7BDFDF4E78E
:100AF00068060020002110B51148FFF757FE114B82
:100B00001A68114B9A420CBF012200220F4B1A7037
:100B100001D0FFF7B1FFFFF79BFC044600F0FEFF9A
:100B20000B4B13B12046AFF3008000210848FFF7BC
:100B300015FEBDE8104000210648FFF78BBD00BF41
:100B4000F9090A08004002401E1C279A640600208A
:100B500000000000BD0A0A0810B588B004466846C7
:100B6000FFF798FE694604A8FFF7B6FE04A8A04761
:100B7000044604A8FFF744FE6846FFF741FE2046FE
:100B800008B010BD1FB500231024CDE90201019269
:100B900069461A461846ADF80230ADF80040FFF736
:100BA000D5FD04B010BD7047F8B50E46002400F125
:100BB0000807051D17F8011D0A223046FFF7E3FE5E
:100BC000AF42044401D12046F8BD002CF2D02E21C2
:100BD0003046FFF7D5FE0444ECE710B50446182173
:100BE000FFF75DFA204610BD10B50446044B1122F4
:100BF000002140F8043B00F089FF204610BD00BFF3
:100C0000EC1C0A080346074A10B543F8042B01F10F
:100C1000100251F8044B914243F8044BF9D10A7881
:100C20001A7010BDEC1C0A08024AC0E90021042217
:100C300002757047EC1C0A0810B59DF8084044EA9C
:100C40000324042344EA024444EA01644460037533
:100C500010BD000013B5044C04609DF810400094D2
:100C6000FFF7EAFF02B010BDEC1C0A0841747047A0
:100C70007047704708B50021007CFFF7BBFC40EAD5
:100C8000E07008BD08B50121007CFFF7B3FC40EA25
:100C9000E07008BD08B5007CFFF7A4FC20EAE07016
:100CA00008BD08B5007CFFF795FC20EAE07008BDA0
:100CB00038B50446007C0D46FFF794FC002801DCA3
:100CC000607C28B12946207CFFF79CFC20EAE0707C
:100CD00038BD007CFFF79EBC10B504461421FFF719
:100CE000DEF9204610BD704710B54FF47A73044604
:100CF00008460021C4E90113044B2074236001233A
:100D000011466374FFF75EFC204610BD001D0A0803
:100D100010B504461422002100F0F8FE054B2046D1
:100D20006360054BE36040F201132381812323823A
:100D300010BD00BF9C0600209D07002030B50E4D61
:100D400087B001A8FFF7E4FF2978BFF35B8F11F0AC
:100D500001040ED12846FFF7A4F950B1214601AA9B
:100D60000648FFF7C1FF2846FFF7A0F9044800F046
:100D7000B9FE024807B030BD6C06002074060020A2
:100D8000710C0A0810B504461422002100F0BEFEC2
:100D9000054B20466360054BE36040F2011323815D
:100DA0008123238210BD00BF1E0800201F090020E0
:100DB00010B50E4C86B001A8FFF7E4FF2378BFF30F
:100DC0005B8FDB070ED42046FFF76BF950B1012192
:100DD00001AA0748FFF788FF2046FFF767F9054893
:100DE00000F080FE024806B010BD00BF7006002073
:100DF00088060020E70C0A08F8B587B20446384692
:100E00000D46164600F086F960B102213846FFF71C
:100E1000FFFA022806D1324629462046BDE8F840AE
:100E2000FFF7C0BBF8BD38B585B20446284600F0D0
:100E300071F950B102212846FFF7EAFA022804D1DD
:100E40002046BDE83840FFF7B5BB38BD7047417458
:100E5000704708B5007CFFF74BFB20EAE07008BD47
:100E600008B5007CFFF71CFB20EAE07008BD08B560
:100E7000007CFFF725FB40EAE07008BD08B5007C68
:100E8000FFF716FB40EAE07008BD007CFFF720BBCF
:100E900070B5467C04460D462EB12946207CBDE83F
:100EA0007040FFF7F5BA007CFFF722FB0028F4DC66
:100EB000304670BD10B504461421FFF7F0F8204607
:100EC00010BD000010B54FF47A7304460846114671
:100ED0000022C4E90123044B2074236001236374BE
:100EE000FFF70EFB204610BD301D0A087047F8B50D
:100EF000064615460C468F18BC4206D0336830466D
:100F00009B6814F8011B9847F6E72846F8BD0022B5
:100F1000007CFFF7FDBA0021007CFFF701BB002138
:100F2000007CFFF705BB0021007CFFF709BB002117
:100F3000007CFFF70DBB10B504461421FFF7AFF896
:100F4000204610BD10B54FF47A73044608460021C0
:100F5000C4E90113034B114623602074FFF708FB1B
:100F6000204610BD601D0A08002240681146FFF7A8
:100F70009DBBF0B5154689B011220E4604460021EE
:100F800003A800F0C3FD284600F000FE002781B250
:100F900073682846009703AAFFF744FB30B139462F
:100FA0002046FFF741FE204609B0F0BD204603A9C8
:100FB000FFF728FEF7E7002240681146FFF796BBCF
:100FC000002240681146FFF7A1BB00224068FFF7EE
:100FD00095BB0022406881F00101FFF77FBB002331
:100FE00040681A461946FFF771BB002340681A464D
:100FF0001946FFF763BB002240681146FFF746BB66
:10100000002202214068FFF749BB002340681A46CE
:10101000FFF734BB0422024B5A60024A1A60704741
:10102000A0090020881D0A08002340681A46FFF71F
:1010300025BB002202214068FFF730BB0022406838
:101040001146FFF723BB002240681146FFF72EBB75
:10105000002340681A461946FFF730BB002340685A
:101060001A461946FFF732BB00214068FFF756BB0E
:1010700000214068FFF75ABB0022406881F001015F
:10108000FFF72CBB00224068FFF738BB0022406806
:101090001146FFF73BBB002240681146FFF726BB15
:1010A00070B515468EB0044608A8FFF79DFD1122C5
:1010B000002103A800F02AFD0026284600F066FD66
:1010C0000A4B009681B25B68284603AAFFF7AAFA8A
:1010D00030B131462046FFF7A7FD20460EB070BD67
:1010E000204603A9FFF78EFDF7E700BFA009002007
:1010F000024B034A1A6000225A607047A809002078
:10110000C41D0A08024B986808B1FFF7B9B97047C7
:10111000B4090020172870B5044601D9002070BD1D
:10112000A0F10D03022B0BD9012824D800F0BEF842
:101130000021007CFFF714FA80F00100C0B2EEE756
:10114000124E3178BFF35B8F11F001050DD130469F
:10115000FEF7A7FF48B129460D48FFF72FFB3046A1
:10116000FEF7A4FF0B4800F0BDFC094B1878FFF711
:1011700011FA0028D2D1123C012C05D800F04CF80D
:10118000007CFFF7ADF9D7E70120C8E7B0090020E0
:10119000B409002005110A08172838B504460D4681
:1011A0000AD8FF2908D0FFF7B5FF28B12946204605
:1011B000BDE83840FFF734B938BD10B50446FFF735
:1011C00037F9031FDBB2012B08D92046FFF7A2FF36
:1011D00020B12046BDE81040FFF732B9002010BD15
:1011E0007047000070B5142504462A46002100F01F
:1011F0008DFC25808025074E284631462581258295
:1012000000F078F831466060284600F073F8E0603E
:10121000204670BDF81D0A0830B50E4D87B02978FC
:10122000BFF35B8F11F0010411D12846FEF739FF9F
:1012300068B101A8FFF7D6FF214601AA0648FFF7CB
:1012400041FE2846FEF732FF044800F04BFC0248FE
:1012500007B030BDC0090020C4090020E1110A0810
:10126000002307B51A46194600930348FFF7F2FC1E
:1012700003B05DF804FB00BFDC09002070470000EC
:1012800070B514232025084E04460360314685605E
:101290000561284600F02EF831466060284600F0CF
:1012A00029F8E060204670BDF81D0A0830B50E4DE3
:1012B00087B02978BFF35B8F11F0010411D1284664
:1012C000FEF7EFFE68B101A8FFF7DAFF214601AA99
:1012D0000648FFF737FE2846FEF7E8FE044800F010
:1012E00001FC024807B030BDF4090020F8090020D5
:1012F0007D120A08FEF7D1BE81F0004102E000BF76
:1013000083F0004330B54FEA41044FEA430594EAC5
:10131000050F08BF90EA020F1FBF54EA000C55EA00
:10132000020C7FEA645C7FEA655C00F0E2804FEAD1
:101330005454D4EB5555B8BF6D420CDD2C4480EAB3
:10134000020281EA030382EA000083EA010180EAE3
:10135000020281EA0303362D88BF30BD11F0004F31
:101360004FEA01314FF4801C4CEA113102D0404267
:1013700061EB410113F0004F4FEA03334CEA1333A2
:1013800002D0524263EB430394EA050F00F0A780BA
:10139000A4F10104D5F1200E0DDB02FA0EFC22FAB5
:1013A00005F2801841F1000103FA0EF2801843FAA9
:1013B00005F359410EE0A5F120050EF1200E012A9A
:1013C00003FA0EFC28BF4CF0020C43FA05F3C018D8
:1013D00051EBE37101F0004507D54FF0000EDCF151
:1013E000000C7EEB00006EEB0101B1F5801F1BD3FA
:1013F000B1F5001F0CD349085FEA30004FEA3C0CFE
:1014000004F101044FEA445212F5800F80F09A80F3
:10141000BCF1004F08BF5FEA500C50F1000041EBF7
:10142000045141EA050130BD5FEA4C0C404141EBFB
:101430000101013C28BFB1F5801FE9D291F0000FF6
:1014400004BF01460020B1FA81F308BF2033A3F1A5
:101450000B03B3F120020CDA0C3208DD02F1140C9C
:10146000C2F10C0201FA0CF021FA02F10CE002F1D7
:101470001402D8BFC2F1200C01FA02F120FA0CFCD0
:10148000DCBF41EA0C019040E41AA2BF01EB045119
:10149000294330BD6FEA04041F3C1CDA0C340EDC17
:1014A00004F11404C4F1200220FA04F001FA02F35A
:1014B00040EA030021FA04F345EA030130BDC4F118
:1014C0000C04C4F1200220FA02F001FA04F340EA0D
:1014D0000300294630BD21FA04F0294630BD94F0BE
:1014E000000F83F4801306BF81F480110134013DA5
:1014F0004EE77FEA645C18BF7FEA655C29D094EA16
:10150000050F08BF90EA020F05D054EA000C04BF93
:101510001946104630BD91EA030F1EBF002100207E
:1015200030BD5FEA545C05D14000494128BF41F01D
:10153000004130BD14F580043CBF01F5801130BD81
:1015400001F0004545F0FE4141F470014FF000000C
:1015500030BD7FEA645C1ABF194610467FEA655CBD
:101560001CBF0B46024650EA013406BF52EA03355F
:1015700091EA030F41F4002130BD00BF90F0000F4D
:1015800004BF0021704730B54FF4806404F1320489
:101590004FF000054FF0000150E700BF90F0000F42
:1015A00004BF0021704730B54FF4806404F1320469
:1015B00010F0004548BF40424FF000013EE700BF39
:1015C00042004FEAE2014FEA31014FEA02701FBFC9
:1015D00012F07F4393F07F4F81F06051704732F0FB
:1015E0007F4208BF704793F07F4F04BF41F4002152
:1015F000704730B54FF4607401F0004521F00041B0
:101600001CE700BF50EA010208BF704730B54FF039
:1016100000050AE050EA010208BF704730B511F03A
:10162000004502D5404261EB41014FF4806404F172
:1016300032045FEA915C3FF4D8AE4FF003025FEAF8
:10164000DC0C18BF03325FEADC0C18BF033202EB7C
:10165000DC02C2F1200300FA03FC20FA02F001FAD6
:1016600003FE40EA0E0021FA02F11444BDE600BF79
:1016700070B54FF0FF0C4CF4E06C1CEA11541DBF28
:101680001CEA135594EA0C0F95EA0C0F00F0DEF8F3
:101690002C4481EA030621EA4C5123EA4C5350EAD8
:1016A000013518BF52EA033541F4801143F4801329
:1016B00038D0A0FB02CE4FF00005E1FB02E506F0BA
:1016C0000042E0FB03E54FF00006E1FB03569CF00F
:1016D000000F18BF4EF0010EA4F1FF04B6F5007F15
:1016E00064F5407404D25FEA4E0E6D4146EB060687
:1016F00042EAC62141EA55514FEAC52040EA5E5010
:101700004FEACE2EB4F1FD0C88BFBCF5E06F1ED8B9
:10171000BEF1004F08BF5FEA500E50F1000041EBF0
:10172000045170BD06F0004646EA010140EA02009D
:1017300081EA0301B4EB5C04C2BFD4EB0C0541EABF
:10174000045170BD41F480114FF0000E013C00F3D4
:10175000AB8014F1360FDEBF002001F0004170BDF8
:10176000C4F10004203C35DA0C341BDC04F1140411
:10177000C4F1200500FA05F320FA04F001FA05F29D
:1017800040EA020001F0004221F0004110EBD3706A
:1017900021FA04F642EB06015EEA430E08BF20EA96
:1017A000D37070BDC4F10C04C4F1200500FA04F339
:1017B00020FA05F001FA04F240EA020001F00041CB
:1017C00010EBD37041F100015EEA430E08BF20EA3E
:1017D000D37070BDC4F1200500FA05F24EEA020E86
:1017E00020FA04F301FA05F243EA020321FA04F0B5
:1017F00001F0004121FA04F220EA020000EBD3706C
:101800005EEA430E08BF20EAD37070BD94F0000F6B
:101810000FD101F00046400041EB010111F4801F9F
:1018200008BF013CF7D041EA060195F0000F18BF50
:10183000704703F00046520043EB030313F4801F8C
:1018400008BF013DF7D043EA0603704794EA0C0F46
:101850000CEA135518BF95EA0C0F0CD050EA41065C
:1018600018BF52EA4306D1D181EA030101F00041D9
:101870004FF0000070BD50EA410606BF1046194601
:1018800052EA430619D094EA0C0F02D150EA01360D
:1018900013D195EA0C0F05D152EA03361CBF10464E
:1018A00019460AD181EA030101F0004141F0FE41ED
:1018B00041F470014FF0000070BD41F0FE4141F471
:1018C000780170BD70B54FF0FF0C4CF4E06C1CEA71
:1018D00011541DBF1CEA135594EA0C0F95EA0C0F26
:1018E00000F0A7F8A4EB050481EA030E52EA0335E1
:1018F0004FEA013100F088804FEA03334FF0805502
:1019000045EA131343EA12634FEA022245EA11152E
:1019100045EA10654FEA00260EF000419D4208BFDF
:10192000964244F1FD0404F5407402D25B084FEA8C
:101930003202B61A65EB03055B084FEA32024FF438
:1019400080104FF4002CB6EB020E75EB030E22BF95
:10195000B61A754640EA0C005B084FEA3202B6EB55
:10196000020E75EB030E22BFB61A754640EA5C0004
:101970005B084FEA3202B6EB020E75EB030E22BF94
:10198000B61A754640EA9C005B084FEA3202B6EB95
:10199000020E75EB030E22BFB61A754640EADC0054
:1019A00055EA060E18D04FEA051545EA16754FEAB6
:1019B00006164FEAC30343EA52734FEAC2025FEAD4
:1019C0001C1CC0D111F4801F0BD141EA00014FF063
:1019D00000004FF0004CB6E711F4801F04BF014334
:1019E0000020B4F1FD0C88BFBCF5E06F3FF6AFAE50
:1019F000B5EB030C04BFB6EB020C5FEA500C50F1E0
:101A0000000041EB045170BD0EF0004E4EEA113162
:101A100014EB5C04C2BFD4EB0C0541EA045170BD69
:101A200041F480114FF0000E013C90E645EA060EAD
:101A30008DE60CEA135594EA0C0F08BF95EA0C0FDB
:101A40003FF43BAF94EA0C0F0AD150EA01347FF423
:101A500034AF95EA0C0F7FF425AF104619462CE7FA
:101A600095EA0C0F06D152EA03353FF4FDAE10465D
:101A7000194622E750EA410618BF52EA43067FF4AE
:101A8000C5AE50EA41047FF40DAF52EA43057FF43E
:101A9000EBAE12E74FEA410212F5001215D211D552
:101AA0006FF47873B3EB625212D94FEAC12343F05B
:101AB000004343EA505311F0004F23FA02F018BFDD
:101AC000404270474FF00000704750EA013005D1A6
:101AD00011F0004008BF6FF0004070474FF0000069
:101AE000704700BF002301461A46184600F056B85A
:101AF0000A44914200F1FF3300D1704710B511F84C
:101B0000014B914203F8014FF9D110BD0346024445
:101B1000934200D1704703F8011BF9E738B5104B29
:101B200004461D68AB6BB3B91820FEF71FFE0246D2
:101B3000A86320B942210B4B0B48FEF72FFE0B493F
:101B40000B4BC0E900130B4B002183600B238381F7
:101B50000120C2E904010022AB6B1C615A6138BD4F
:101B6000B8050020F91D0A08101E0A080E33CDAB77
:101B700034126DE6ECDE050010F8012B11F8013B84
:101B8000012A28BF9A42F7D0D01A7047034613F8AB
:101B9000012B002AFBD1181A013870472DE9F843B0
:101BA000DFF8AC800646D8F800001F460D46914687
:101BB00000F058F8274B1C6834B9274C1C60274BA1
:101BC00013B11B68C4F8883063681F2B07DDD8F891
:101BD000000000F049F84FF0FF30BDE8F8835EB335
:101BE000D4F8880088B91E4B23B9D8F8000000F05B
:101BF0003AF8F0E74FF48470FEF7B8FD0028F4D00F
:101C00000023C0E94033C4F8880001226368022E33
:101C100040F8239002FA03F200EB8301D0F8003180
:101C200043EA0203C0F80031C1F8807002BFD0F867
:101C300004311343C0F804316368D8F800005A1C1B
:101C40000233626044F8235000F00EF80020C4E72D
:101C50001C060020980A00200C0A0020000000004A
:101C60006D070A08704770477047000021000A0896
:101C700061000A0889000A088D000A0800000000B7
:101C80005A656C6461005269636B005368617065EA
:101C9000004C696B6500646F596F7557616E7454C1
:101CA000686973536F6E6700736574546865536F2A
:101CB0006E67004E6F20736F6E672073656C65638F
:101CC000746564006170700025592D256D2D2564A3
:101CD0005425483A254D3A2553257A00617363749B
:101CE000696D65000000000000000000A90B0A08F3
:101CF000A70B0A08DB0B0A08000000000000000028
:101D0000730C0A08D90C0A08B10C0A0835090A082C
:101D1000A30C0A08750C0A08850C0A08D30C0A08DB
:101D2000950C0A086D0C0A08000000000000000075
:101D30004D0E0A08B50E0A08910E0A0835090A0860
:101D4000610E0A087D0E0A086F0E0A088B0E0A083B
:101D50004F0E0A08530E0A080000000000000000A1
:101D6000ED0E0A08370F0A080F0F0A08EF0E0A08CF
:101D7000170F0A081F0F0A08270F0A082F0F0A0853
:101D800000000000000000000B100A0801100A0803
:101D9000F70F0A08690F0A08EB0F0A08DF0F0A0895
:101DA00069100A0871100A08D30F0A08CB0F0A0835
:101DB000C10F0A08B70F0A08730F0A0800000000D5
:101DC0000000000029100A0833100A083D100A0814
:101DD00047100A0851100A085D100A0869100A081D
:101DE00071100A0879100A0885100A088D100A086F
:101DF00097100A08A1100A08005245454E54206D5C
:101E0000616C6C6F63207375636365656465640002
:101E10002F6D6E742F776F726B73706163652F77A0
:101E20006F726B73706163652F4743432D31302DA3
:101E3000706970656C696E652F6A656E6B696E732B
:101E40002D4743432D31302D706970656C696E6587
:101E50002D34385F32303230313132345F31363008
:101E6000363138303634312F7372632F6E65776CAC
:101E700069622F6E65776C69622F6C6962632F737C
:101E800074646C69622F72616E642E6300000000DE
:101E900001040A08DD070A08C1090A08D1090A086D
:101EA000ED090A0815100A08F1100A0861120A085B
:041EB000000000002E
:101EB4000500000002000000040000000300000010
:101EC40093020000930200009302000093020000BA
:101ED4000B020000B80100000000000093020000A3
:101EE400930200009302000093020000930200009A
:101EF4000B020000B801000000000000B80100005F
:101F0400930200000B0200000B020000B801000065
:101F14000B0200000B0200004B02000093020000C1
:101F24000B0200000B020000B80100000B020000CD
:101F34000B020000B80100008801000093020000B9
:101F44000B0200000B020000B80100000B020000AD
:101F54000B0200004B0200004B0200009302000041
:101F64000B0200000B020000B80100000B0200008D
:101F74000B020000B80100001003000093020000EF
:101F8400930200000B0200000B0200008801000015
:101F94008801000088010000880100008801000019
:101FA4004B0200000B0200000B02000000000000C6
:101FB40010030000100300009302000093020000CD
:101FC4000B02000088010000880100008801000065
:101FD400880100004B0200000B0200000B0200000D
:101FE40008000000080000000800000008000000CD
:101FF40008000000080000000400000010000000B9
:1020040010000000080000000800000008000000A4
:10201400080000000800000008000000080000009C
:10202400080000000800000008000000080000008C
:102034000800000008000000040000000800000080
:10204400080000000800000008000000080000006C
:10205400080000000800000008000000080000005C
:10206400080000000800000008000000080000004C
:10207400080000000800000008000000080000003C
:10208400080000000800000008000000080000002C
:102094000800000004000000040000000800000024
:1020A4000800000008000000080000000400000010
:1020B40008000000080000000800000008000000FC
:1020C40004000000080000000800000004000000F4
:1020D40008000000080000000800000008000000DC
:1020E40004000000080000000800000008000000D0
:1020F40008000000040000000800000008000000C0
:102104000400000025010000000000004A01000056
:1021140072010000250100004A0100004A0100008C
:102124004A010000720100004A010000DC000000C6
:1021340000000000F7000000150100002501000068
:10214400F7000000000000004A01000072010000D6
:102154004A010000DC000000F70000002501000037
:10216400F700000072010000720100004A01000043
:10217400DC000000F700000025010000F70000006B
:102184004A0100004A01000025010000DC000000B3
:10219400F700000025010000F70000002501000001
:1021A4004A01000015010000F7000000DC000000F7
:1021B400DC0000004A0100002501000002000000CC
:1021C40008000000080000000800000008000000EB
:1021D40008000000080000000800000008000000DB
:1021E40004000000040000000200000008000000D9
:1021F40008000000080000000800000008000000BB
:1022040008000000080000000300000010000000A7
:102214001000000010000000100000000600000084
:102224000600000003000000100000001000000081
:10223400100000001000000006000000060000006E
:102244000300000010000000100000001000000057
:102254001000000004000000080000000800000056
:10226400100000000400000008000000040000004A
:1022740002000000150100004A01000015010000E1
:102284003701000015010000FA00000015010000EC
:102294004A0100004A0100004A0100004A0100000E
:1022A4004A0100004A0100004A0100004A010000FE
:1022B4004A0100004A0100004A0100004A010000EE
:1022C4004A010000720100009F0100009F0100000C
:1022D40000000000EE010000720100009F010000F8
:1022E4009F0100009F0100009F0100007201000097
:1022F40072010000720100009F01000072010000E1
:10230400720100004A010000720100007201000025
:1023140072010000720100004A0100001501000072
:10232400000000000300000003000000040000009F
:102334000300000003000000080000000800000083
:10234400040000000800000008000000080000006D
:102354000400000004000000080000000400000065
:102364000400000008000000080000000400000051
:102374000400000008000000040000000200000047
:10238400020000000800000008000000080000002F
:102394000400000004000000080000000800000021
:1023A400080000000800000008000000040000000D
:1023B40008000000080000000400000008000000FD
:1023C40008000000080000000400000002000000F3
:1023D40003000000250100000000000000000000D0
:1023E40025010000370100005D01000071010000BB
:1023F4009F010000000000009F0100009F010000F9
:10240400D20100000B0200002A020000BA02000000
:1024140093020000000000000B0200001000000006
:102424001000000010000000100000001000000068
:10243400100000001000000002000000080000006E
:102444000800000010000000100000001000000050
:102454000100000004000000080000000800000063
:1024640002000000DC1C0A08BC050020000000007B
:102474000000000000000000000000000000000058
:102484000000000000000000000000000000000048
:102494000000000000000000000000000000000038
:1024A4000000000000000000000000000000000028
:1024B4000000000000000000000000000000000018
:1024C4000000000000000000000000009C0A002042
:1024D400FFFFFFFF00000102030405060708090AC5
:1024E4000B0C0D0E0F101112131415161718191AC0
:0824F4001B1C1D1E1F20280007
:0424FC0078563412C8
:04000005080A0020C5
:00000001FF
